{
  "contractName": "Market",
  "abi": [
    {
      "constant": true,
      "inputs": [
        {
          "name": "",
          "type": "uint256"
        }
      ],
      "name": "listingToOwner",
      "outputs": [
        {
          "name": "",
          "type": "address"
        }
      ],
      "payable": false,
      "stateMutability": "view",
      "type": "function",
      "signature": "0x00eea685"
    },
    {
      "constant": true,
      "inputs": [
        {
          "name": "",
          "type": "uint256"
        }
      ],
      "name": "listings",
      "outputs": [
        {
          "name": "name",
          "type": "string"
        },
        {
          "name": "description",
          "type": "string"
        },
        {
          "name": "image_id",
          "type": "string"
        },
        {
          "name": "category",
          "type": "string"
        },
        {
          "name": "price_in_wei",
          "type": "uint256"
        },
        {
          "name": "available",
          "type": "bool"
        }
      ],
      "payable": false,
      "stateMutability": "view",
      "type": "function",
      "signature": "0xde74e57b"
    },
    {
      "anonymous": false,
      "inputs": [
        {
          "indexed": false,
          "name": "listingId",
          "type": "uint256"
        },
        {
          "indexed": false,
          "name": "name",
          "type": "string"
        },
        {
          "indexed": false,
          "name": "description",
          "type": "string"
        },
        {
          "indexed": false,
          "name": "image_id",
          "type": "string"
        },
        {
          "indexed": false,
          "name": "price_in_wei",
          "type": "uint256"
        }
      ],
      "name": "NewListing",
      "type": "event",
      "signature": "0xc5ea307546475a26c2a58d23a97b2f6c17d6c533db7c840c180b6ae7f0f45bf2"
    },
    {
      "constant": true,
      "inputs": [],
      "name": "getListingCount",
      "outputs": [
        {
          "name": "",
          "type": "uint256"
        }
      ],
      "payable": false,
      "stateMutability": "view",
      "type": "function",
      "signature": "0x87ed92d7"
    },
    {
      "constant": false,
      "inputs": [
        {
          "name": "_name",
          "type": "string"
        },
        {
          "name": "_description",
          "type": "string"
        },
        {
          "name": "_image_id",
          "type": "string"
        },
        {
          "name": "_category",
          "type": "string"
        },
        {
          "name": "_price_in_wei",
          "type": "uint256"
        }
      ],
      "name": "createListing",
      "outputs": [],
      "payable": false,
      "stateMutability": "nonpayable",
      "type": "function",
      "signature": "0x1bafa6ed"
    },
    {
      "constant": true,
      "inputs": [
        {
          "name": "_id",
          "type": "uint256"
        }
      ],
      "name": "getListingName",
      "outputs": [
        {
          "name": "",
          "type": "string"
        }
      ],
      "payable": false,
      "stateMutability": "view",
      "type": "function",
      "signature": "0x88069f7b"
    },
    {
      "constant": true,
      "inputs": [
        {
          "name": "_id",
          "type": "uint256"
        }
      ],
      "name": "getListingDescription",
      "outputs": [
        {
          "name": "",
          "type": "string"
        }
      ],
      "payable": false,
      "stateMutability": "view",
      "type": "function",
      "signature": "0x288e6403"
    },
    {
      "constant": true,
      "inputs": [
        {
          "name": "_id",
          "type": "uint256"
        }
      ],
      "name": "getListingImageId",
      "outputs": [
        {
          "name": "",
          "type": "string"
        }
      ],
      "payable": false,
      "stateMutability": "view",
      "type": "function",
      "signature": "0x78ab9be7"
    },
    {
      "constant": true,
      "inputs": [
        {
          "name": "_id",
          "type": "uint256"
        }
      ],
      "name": "getListingPrice",
      "outputs": [
        {
          "name": "",
          "type": "uint256"
        }
      ],
      "payable": false,
      "stateMutability": "view",
      "type": "function",
      "signature": "0xd6077fbf"
    },
    {
      "constant": true,
      "inputs": [
        {
          "name": "_id",
          "type": "uint256"
        }
      ],
      "name": "getListingAvailability",
      "outputs": [
        {
          "name": "",
          "type": "bool"
        }
      ],
      "payable": false,
      "stateMutability": "view",
      "type": "function",
      "signature": "0xc51b478a"
    }
  ],
  "bytecode": "0x608060405234801561001057600080fd5b5061123f806100206000396000f3fe608060405260043610610098576000357c0100000000000000000000000000000000000000000000000000000000900463ffffffff168062eea6851461009d5780631bafa6ed14610118578063288e6403146103af57806378ab9be71461046357806387ed92d71461051757806388069f7b14610542578063c51b478a146105f6578063d6077fbf14610649578063de74e57b14610698575b600080fd5b3480156100a957600080fd5b506100d6600480360360208110156100c057600080fd5b81019080803590602001909291905050506108a2565b604051808273ffffffffffffffffffffffffffffffffffffffff1673ffffffffffffffffffffffffffffffffffffffff16815260200191505060405180910390f35b34801561012457600080fd5b506103ad600480360360a081101561013b57600080fd5b810190808035906020019064010000000081111561015857600080fd5b82018360208201111561016a57600080fd5b8035906020019184600183028401116401000000008311171561018c57600080fd5b91908080601f016020809104026020016040519081016040528093929190818152602001838380828437600081840152601f19601f820116905080830192505050505050509192919290803590602001906401000000008111156101ef57600080fd5b82018360208201111561020157600080fd5b8035906020019184600183028401116401000000008311171561022357600080fd5b91908080601f016020809104026020016040519081016040528093929190818152602001838380828437600081840152601f19601f8201169050808301925050505050505091929192908035906020019064010000000081111561028657600080fd5b82018360208201111561029857600080fd5b803590602001918460018302840111640100000000831117156102ba57600080fd5b91908080601f016020809104026020016040519081016040528093929190818152602001838380828437600081840152601f19601f8201169050808301925050505050505091929192908035906020019064010000000081111561031d57600080fd5b82018360208201111561032f57600080fd5b8035906020019184600183028401116401000000008311171561035157600080fd5b91908080601f016020809104026020016040519081016040528093929190818152602001838380828437600081840152601f19601f820116905080830192505050505050509192919290803590602001909291905050506108d5565b005b3480156103bb57600080fd5b506103e8600480360360208110156103d257600080fd5b8101908080359060200190929190505050610c05565b6040518080602001828103825283818151815260200191508051906020019080838360005b8381101561042857808201518184015260208101905061040d565b50505050905090810190601f1680156104555780820380516001836020036101000a031916815260200191505b509250505060405180910390f35b34801561046f57600080fd5b5061049c6004803603602081101561048657600080fd5b8101908080359060200190929190505050610cc7565b6040518080602001828103825283818151815260200191508051906020019080838360005b838110156104dc5780820151818401526020810190506104c1565b50505050905090810190601f1680156105095780820380516001836020036101000a031916815260200191505b509250505060405180910390f35b34801561052357600080fd5b5061052c610d89565b6040518082815260200191505060405180910390f35b34801561054e57600080fd5b5061057b6004803603602081101561056557600080fd5b8101908080359060200190929190505050610d95565b6040518080602001828103825283818151815260200191508051906020019080838360005b838110156105bb5780820151818401526020810190506105a0565b50505050905090810190601f1680156105e85780820380516001836020036101000a031916815260200191505b509250505060405180910390f35b34801561060257600080fd5b5061062f6004803603602081101561061957600080fd5b8101908080359060200190929190505050610e57565b604051808215151515815260200191505060405180910390f35b34801561065557600080fd5b506106826004803603602081101561066c57600080fd5b8101908080359060200190929190505050610e8d565b6040518082815260200191505060405180910390f35b3480156106a457600080fd5b506106d1600480360360208110156106bb57600080fd5b8101908080359060200190929190505050610eb6565b60405180806020018060200180602001806020018781526020018615151515815260200185810385528b818151815260200191508051906020019080838360005b8381101561072d578082015181840152602081019050610712565b50505050905090810190601f16801561075a5780820380516001836020036101000a031916815260200191505b5085810384528a818151815260200191508051906020019080838360005b83811015610793578082015181840152602081019050610778565b50505050905090810190601f1680156107c05780820380516001836020036101000a031916815260200191505b50858103835289818151815260200191508051906020019080838360005b838110156107f95780820151818401526020810190506107de565b50505050905090810190601f1680156108265780820380516001836020036101000a031916815260200191505b50858103825288818151815260200191508051906020019080838360005b8381101561085f578082015181840152602081019050610844565b50505050905090810190601f16801561088c5780820380516001836020036101000a031916815260200191505b509a505050505050505050505060405180910390f35b60016020528060005260406000206000915054906101000a900473ffffffffffffffffffffffffffffffffffffffff1681565b60008060c0604051908101604052808881526020018781526020018681526020018581526020018481526020016001151581525090806001815401808255809150509060018203906000526020600020906006020160009091929091909150600082015181600001908051906020019061095092919061116e565b50602082015181600101908051906020019061096d92919061116e565b50604082015181600201908051906020019061098a92919061116e565b5060608201518160030190805190602001906109a792919061116e565b506080820151816004015560a08201518160050160006101000a81548160ff02191690831515021790555050509050336001600083815260200190815260200160002060006101000a81548173ffffffffffffffffffffffffffffffffffffffff021916908373ffffffffffffffffffffffffffffffffffffffff160217905550600260003373ffffffffffffffffffffffffffffffffffffffff1673ffffffffffffffffffffffffffffffffffffffff168152602001908152602001600020600081548092919060010191905055507fc5ea307546475a26c2a58d23a97b2f6c17d6c533db7c840c180b6ae7f0f45bf2818787878660405180868152602001806020018060200180602001858152602001848103845288818151815260200191508051906020019080838360005b83811015610af1578082015181840152602081019050610ad6565b50505050905090810190601f168015610b1e5780820380516001836020036101000a031916815260200191505b50848103835287818151815260200191508051906020019080838360005b83811015610b57578082015181840152602081019050610b3c565b50505050905090810190601f168015610b845780820380516001836020036101000a031916815260200191505b50848103825286818151815260200191508051906020019080838360005b83811015610bbd578082015181840152602081019050610ba2565b50505050905090810190601f168015610bea5780820380516001836020036101000a031916815260200191505b509850505050505050505060405180910390a1505050505050565b6060600082815481101515610c1657fe5b90600052602060002090600602016001018054600181600116156101000203166002900480601f016020809104026020016040519081016040528092919081815260200182805460018160011615610100020316600290048015610cbb5780601f10610c9057610100808354040283529160200191610cbb565b820191906000526020600020905b815481529060010190602001808311610c9e57829003601f168201915b50505050509050919050565b6060600082815481101515610cd857fe5b90600052602060002090600602016002018054600181600116156101000203166002900480601f016020809104026020016040519081016040528092919081815260200182805460018160011615610100020316600290048015610d7d5780601f10610d5257610100808354040283529160200191610d7d565b820191906000526020600020905b815481529060010190602001808311610d6057829003601f168201915b50505050509050919050565b60008080549050905090565b6060600082815481101515610da657fe5b90600052602060002090600602016000018054600181600116156101000203166002900480601f016020809104026020016040519081016040528092919081815260200182805460018160011615610100020316600290048015610e4b5780601f10610e2057610100808354040283529160200191610e4b565b820191906000526020600020905b815481529060010190602001808311610e2e57829003601f168201915b50505050509050919050565b60008082815481101515610e6757fe5b906000526020600020906006020160050160009054906101000a900460ff169050919050565b60008082815481101515610e9d57fe5b9060005260206000209060060201600401549050919050565b600081815481101515610ec557fe5b9060005260206000209060060201600091509050806000018054600181600116156101000203166002900480601f016020809104026020016040519081016040528092919081815260200182805460018160011615610100020316600290048015610f715780601f10610f4657610100808354040283529160200191610f71565b820191906000526020600020905b815481529060010190602001808311610f5457829003601f168201915b505050505090806001018054600181600116156101000203166002900480601f01602080910402602001604051908101604052809291908181526020018280546001816001161561010002031660029004801561100f5780601f10610fe45761010080835404028352916020019161100f565b820191906000526020600020905b815481529060010190602001808311610ff257829003601f168201915b505050505090806002018054600181600116156101000203166002900480601f0160208091040260200160405190810160405280929190818152602001828054600181600116156101000203166002900480156110ad5780601f10611082576101008083540402835291602001916110ad565b820191906000526020600020905b81548152906001019060200180831161109057829003601f168201915b505050505090806003018054600181600116156101000203166002900480601f01602080910402602001604051908101604052809291908181526020018280546001816001161561010002031660029004801561114b5780601f106111205761010080835404028352916020019161114b565b820191906000526020600020905b81548152906001019060200180831161112e57829003601f168201915b5050505050908060040154908060050160009054906101000a900460ff16905086565b828054600181600116156101000203166002900490600052602060002090601f016020900481019282601f106111af57805160ff19168380011785556111dd565b828001600101855582156111dd579182015b828111156111dc5782518255916020019190600101906111c1565b5b5090506111ea91906111ee565b5090565b61121091905b8082111561120c5760008160009055506001016111f4565b5090565b9056fea165627a7a72305820bfbeedf9afbb453f15bcbd5345bc6b2100e378a47ea49724de7c6edaa1eb0d840029",
  "source": "pragma solidity >=0.4.21 < 0.6.0;\n\ncontract Market {\n\n    event NewListing(uint listingId, string name, string description, string image_id, uint price_in_wei);\n\n    struct Listing {\n        string name;\n        string description;\n        string image_id;\n        string category;\n        uint price_in_wei;\n        bool available;\n    }\n\n    Listing[] public listings;\n\n    mapping (uint => address) public listingToOwner;\n    mapping (address => uint) ownerListingCount;\n\n    function getListingCount() public view returns(uint) {\n        return listings.length;\n    }\n\n    function createListing(\n        string memory _name,\n        string memory _description,\n        string memory _image_id,\n        string memory _category,\n        uint _price_in_wei\n    ) public {\n        uint id = listings.push(Listing(_name, _description, _image_id, _category,  _price_in_wei, true));\n        listingToOwner[id] = msg.sender;\n        ownerListingCount[msg.sender]++;\n        emit NewListing(id, _name, _description, _image_id, _price_in_wei);\n    }\n\n    function getListingName(uint _id) external view returns(string memory) {\n        return(listings[_id].name);\n    }\n\n    function getListingDescription(uint _id) external view returns(string memory) {\n        return(listings[_id].description);\n    }\n\n    function getListingImageId(uint _id) external view returns(string memory) {\n        return(listings[_id].image_id);\n    }\n\n    function getListingPrice(uint _id) external view returns(uint) {\n        return(listings[_id].price_in_wei);\n    }\n\n    function getListingAvailability(uint _id) external view returns(bool) {\n        return(listings[_id].available);\n    }\n}",
  "sourcePath": "/Users/tarcode/Desktop/ETH/eth-hack/contracts/Market.sol",
  "compiler": {
    "name": "solc",
    "version": "0.5.0+commit.1d4f565a.Emscripten.clang"
  },
  "schemaVersion": "3.0.6",
  "updatedAt": "2019-04-19T21:39:01.724Z",
  "devdoc": {
    "methods": {}
  },
  "userdoc": {
    "methods": {}
  }
}