{
  "contractName": "Market",
  "abi": [
    {
      "constant": true,
      "inputs": [
        {
          "name": "",
          "type": "uint256"
        }
      ],
      "name": "listingToOwner",
      "outputs": [
        {
          "name": "",
          "type": "address"
        }
      ],
      "payable": false,
      "stateMutability": "view",
      "type": "function",
      "signature": "0x00eea685"
    },
    {
      "constant": true,
      "inputs": [
        {
          "name": "",
          "type": "uint256"
        }
      ],
      "name": "listings",
      "outputs": [
        {
          "name": "name",
          "type": "string"
        },
        {
          "name": "description",
          "type": "string"
        },
        {
          "name": "image_id",
          "type": "string"
        },
        {
          "name": "category",
          "type": "string"
        },
        {
          "name": "price_in_wei",
          "type": "uint256"
        },
        {
          "name": "available",
          "type": "bool"
        }
      ],
      "payable": false,
      "stateMutability": "view",
      "type": "function",
      "signature": "0xde74e57b"
    },
    {
      "anonymous": false,
      "inputs": [
        {
          "indexed": false,
          "name": "listingId",
          "type": "uint256"
        },
        {
          "indexed": false,
          "name": "name",
          "type": "string"
        },
        {
          "indexed": false,
          "name": "category",
          "type": "string"
        },
        {
          "indexed": false,
          "name": "description",
          "type": "string"
        },
        {
          "indexed": false,
          "name": "image_id",
          "type": "string"
        },
        {
          "indexed": false,
          "name": "price_in_wei",
          "type": "uint256"
        }
      ],
      "name": "NewListing",
      "type": "event",
      "signature": "0x82406d862d0fb4ffb4e71be8540de79419e5ed7fda48e14da2caa73d468193bf"
    },
    {
      "constant": true,
      "inputs": [],
      "name": "getListingCount",
      "outputs": [
        {
          "name": "",
          "type": "uint256"
        }
      ],
      "payable": false,
      "stateMutability": "view",
      "type": "function",
      "signature": "0x87ed92d7"
    },
    {
      "constant": false,
      "inputs": [
        {
          "name": "_name",
          "type": "string"
        },
        {
          "name": "_description",
          "type": "string"
        },
        {
          "name": "_image_id",
          "type": "string"
        },
        {
          "name": "_category",
          "type": "string"
        },
        {
          "name": "_price_in_wei",
          "type": "uint256"
        }
      ],
      "name": "createListing",
      "outputs": [],
      "payable": false,
      "stateMutability": "nonpayable",
      "type": "function",
      "signature": "0x1bafa6ed"
    },
    {
      "constant": true,
      "inputs": [
        {
          "name": "_id",
          "type": "uint256"
        }
      ],
      "name": "getListingName",
      "outputs": [
        {
          "name": "",
          "type": "string"
        }
      ],
      "payable": false,
      "stateMutability": "view",
      "type": "function",
      "signature": "0x88069f7b"
    },
    {
      "constant": true,
      "inputs": [
        {
          "name": "_id",
          "type": "uint256"
        }
      ],
      "name": "getListingDescription",
      "outputs": [
        {
          "name": "",
          "type": "string"
        }
      ],
      "payable": false,
      "stateMutability": "view",
      "type": "function",
      "signature": "0x288e6403"
    },
    {
      "constant": true,
      "inputs": [
        {
          "name": "_id",
          "type": "uint256"
        }
      ],
      "name": "getListingImageId",
      "outputs": [
        {
          "name": "",
          "type": "string"
        }
      ],
      "payable": false,
      "stateMutability": "view",
      "type": "function",
      "signature": "0x78ab9be7"
    },
    {
      "constant": true,
      "inputs": [
        {
          "name": "_id",
          "type": "uint256"
        }
      ],
      "name": "getListingPrice",
      "outputs": [
        {
          "name": "",
          "type": "uint256"
        }
      ],
      "payable": false,
      "stateMutability": "view",
      "type": "function",
      "signature": "0xd6077fbf"
    },
    {
      "constant": true,
      "inputs": [
        {
          "name": "_id",
          "type": "uint256"
        }
      ],
      "name": "getListingAvailability",
      "outputs": [
        {
          "name": "",
          "type": "bool"
        }
      ],
      "payable": false,
      "stateMutability": "view",
      "type": "function",
      "signature": "0xc51b478a"
    },
    {
      "constant": true,
      "inputs": [
        {
          "name": "_id",
          "type": "uint256"
        }
      ],
      "name": "getListingOwnerById",
      "outputs": [
        {
          "name": "",
          "type": "address"
        }
      ],
      "payable": false,
      "stateMutability": "view",
      "type": "function",
      "signature": "0xece5a873"
    }
  ],
  "bytecode": "0x608060405234801561001057600080fd5b5061136f806100206000396000f3fe6080604052600436106100a3576000357c0100000000000000000000000000000000000000000000000000000000900463ffffffff168062eea685146100a85780631bafa6ed14610123578063288e6403146103ba57806378ab9be71461046e57806387ed92d71461052257806388069f7b1461054d578063c51b478a14610601578063d6077fbf14610654578063de74e57b146106a3578063ece5a873146108ad575b600080fd5b3480156100b457600080fd5b506100e1600480360360208110156100cb57600080fd5b8101908080359060200190929190505050610928565b604051808273ffffffffffffffffffffffffffffffffffffffff1673ffffffffffffffffffffffffffffffffffffffff16815260200191505060405180910390f35b34801561012f57600080fd5b506103b8600480360360a081101561014657600080fd5b810190808035906020019064010000000081111561016357600080fd5b82018360208201111561017557600080fd5b8035906020019184600183028401116401000000008311171561019757600080fd5b91908080601f016020809104026020016040519081016040528093929190818152602001838380828437600081840152601f19601f820116905080830192505050505050509192919290803590602001906401000000008111156101fa57600080fd5b82018360208201111561020c57600080fd5b8035906020019184600183028401116401000000008311171561022e57600080fd5b91908080601f016020809104026020016040519081016040528093929190818152602001838380828437600081840152601f19601f8201169050808301925050505050505091929192908035906020019064010000000081111561029157600080fd5b8201836020820111156102a357600080fd5b803590602001918460018302840111640100000000831117156102c557600080fd5b91908080601f016020809104026020016040519081016040528093929190818152602001838380828437600081840152601f19601f8201169050808301925050505050505091929192908035906020019064010000000081111561032857600080fd5b82018360208201111561033a57600080fd5b8035906020019184600183028401116401000000008311171561035c57600080fd5b91908080601f016020809104026020016040519081016040528093929190818152602001838380828437600081840152601f19601f8201169050808301925050505050505091929192908035906020019092919050505061095b565b005b3480156103c657600080fd5b506103f3600480360360208110156103dd57600080fd5b8101908080359060200190929190505050610cf8565b6040518080602001828103825283818151815260200191508051906020019080838360005b83811015610433578082015181840152602081019050610418565b50505050905090810190601f1680156104605780820380516001836020036101000a031916815260200191505b509250505060405180910390f35b34801561047a57600080fd5b506104a76004803603602081101561049157600080fd5b8101908080359060200190929190505050610dba565b6040518080602001828103825283818151815260200191508051906020019080838360005b838110156104e75780820151818401526020810190506104cc565b50505050905090810190601f1680156105145780820380516001836020036101000a031916815260200191505b509250505060405180910390f35b34801561052e57600080fd5b50610537610e7c565b6040518082815260200191505060405180910390f35b34801561055957600080fd5b506105866004803603602081101561057057600080fd5b8101908080359060200190929190505050610e88565b6040518080602001828103825283818151815260200191508051906020019080838360005b838110156105c65780820151818401526020810190506105ab565b50505050905090810190601f1680156105f35780820380516001836020036101000a031916815260200191505b509250505060405180910390f35b34801561060d57600080fd5b5061063a6004803603602081101561062457600080fd5b8101908080359060200190929190505050610f4a565b604051808215151515815260200191505060405180910390f35b34801561066057600080fd5b5061068d6004803603602081101561067757600080fd5b8101908080359060200190929190505050610f80565b6040518082815260200191505060405180910390f35b3480156106af57600080fd5b506106dc600480360360208110156106c657600080fd5b8101908080359060200190929190505050610fa9565b60405180806020018060200180602001806020018781526020018615151515815260200185810385528b818151815260200191508051906020019080838360005b8381101561073857808201518184015260208101905061071d565b50505050905090810190601f1680156107655780820380516001836020036101000a031916815260200191505b5085810384528a818151815260200191508051906020019080838360005b8381101561079e578082015181840152602081019050610783565b50505050905090810190601f1680156107cb5780820380516001836020036101000a031916815260200191505b50858103835289818151815260200191508051906020019080838360005b838110156108045780820151818401526020810190506107e9565b50505050905090810190601f1680156108315780820380516001836020036101000a031916815260200191505b50858103825288818151815260200191508051906020019080838360005b8381101561086a57808201518184015260208101905061084f565b50505050905090810190601f1680156108975780820380516001836020036101000a031916815260200191505b509a505050505050505050505060405180910390f35b3480156108b957600080fd5b506108e6600480360360208110156108d057600080fd5b8101908080359060200190929190505050611261565b604051808273ffffffffffffffffffffffffffffffffffffffff1673ffffffffffffffffffffffffffffffffffffffff16815260200191505060405180910390f35b60016020528060005260406000206000915054906101000a900473ffffffffffffffffffffffffffffffffffffffff1681565b60008060c060405190810160405280888152602001878152602001858152602001868152602001848152602001600115158152509080600181540180825580915050906001820390600052602060002090600602016000909192909190915060008201518160000190805190602001906109d692919061129e565b5060208201518160010190805190602001906109f392919061129e565b506040820151816002019080519060200190610a1092919061129e565b506060820151816003019080519060200190610a2d92919061129e565b506080820151816004015560a08201518160050160006101000a81548160ff02191690831515021790555050509050336001600083815260200190815260200160002060006101000a81548173ffffffffffffffffffffffffffffffffffffffff021916908373ffffffffffffffffffffffffffffffffffffffff160217905550600260003373ffffffffffffffffffffffffffffffffffffffff1673ffffffffffffffffffffffffffffffffffffffff168152602001908152602001600020600081548092919060010191905055507f82406d862d0fb4ffb4e71be8540de79419e5ed7fda48e14da2caa73d468193bf818787868887604051808781526020018060200180602001806020018060200186815260200185810385528a818151815260200191508051906020019080838360005b83811015610b7c578082015181840152602081019050610b61565b50505050905090810190601f168015610ba95780820380516001836020036101000a031916815260200191505b50858103845289818151815260200191508051906020019080838360005b83811015610be2578082015181840152602081019050610bc7565b50505050905090810190601f168015610c0f5780820380516001836020036101000a031916815260200191505b50858103835288818151815260200191508051906020019080838360005b83811015610c48578082015181840152602081019050610c2d565b50505050905090810190601f168015610c755780820380516001836020036101000a031916815260200191505b50858103825287818151815260200191508051906020019080838360005b83811015610cae578082015181840152602081019050610c93565b50505050905090810190601f168015610cdb5780820380516001836020036101000a031916815260200191505b509a505050505050505050505060405180910390a1505050505050565b6060600082815481101515610d0957fe5b90600052602060002090600602016001018054600181600116156101000203166002900480601f016020809104026020016040519081016040528092919081815260200182805460018160011615610100020316600290048015610dae5780601f10610d8357610100808354040283529160200191610dae565b820191906000526020600020905b815481529060010190602001808311610d9157829003601f168201915b50505050509050919050565b6060600082815481101515610dcb57fe5b90600052602060002090600602016002018054600181600116156101000203166002900480601f016020809104026020016040519081016040528092919081815260200182805460018160011615610100020316600290048015610e705780601f10610e4557610100808354040283529160200191610e70565b820191906000526020600020905b815481529060010190602001808311610e5357829003601f168201915b50505050509050919050565b60008080549050905090565b6060600082815481101515610e9957fe5b90600052602060002090600602016000018054600181600116156101000203166002900480601f016020809104026020016040519081016040528092919081815260200182805460018160011615610100020316600290048015610f3e5780601f10610f1357610100808354040283529160200191610f3e565b820191906000526020600020905b815481529060010190602001808311610f2157829003601f168201915b50505050509050919050565b60008082815481101515610f5a57fe5b906000526020600020906006020160050160009054906101000a900460ff169050919050565b60008082815481101515610f9057fe5b9060005260206000209060060201600401549050919050565b600081815481101515610fb857fe5b9060005260206000209060060201600091509050806000018054600181600116156101000203166002900480601f0160208091040260200160405190810160405280929190818152602001828054600181600116156101000203166002900480156110645780601f1061103957610100808354040283529160200191611064565b820191906000526020600020905b81548152906001019060200180831161104757829003601f168201915b505050505090806001018054600181600116156101000203166002900480601f0160208091040260200160405190810160405280929190818152602001828054600181600116156101000203166002900480156111025780601f106110d757610100808354040283529160200191611102565b820191906000526020600020905b8154815290600101906020018083116110e557829003601f168201915b505050505090806002018054600181600116156101000203166002900480601f0160208091040260200160405190810160405280929190818152602001828054600181600116156101000203166002900480156111a05780601f10611175576101008083540402835291602001916111a0565b820191906000526020600020905b81548152906001019060200180831161118357829003601f168201915b505050505090806003018054600181600116156101000203166002900480601f01602080910402602001604051908101604052809291908181526020018280546001816001161561010002031660029004801561123e5780601f106112135761010080835404028352916020019161123e565b820191906000526020600020905b81548152906001019060200180831161122157829003601f168201915b5050505050908060040154908060050160009054906101000a900460ff16905086565b60006001600083815260200190815260200160002060009054906101000a900473ffffffffffffffffffffffffffffffffffffffff169050919050565b828054600181600116156101000203166002900490600052602060002090601f016020900481019282601f106112df57805160ff191683800117855561130d565b8280016001018555821561130d579182015b8281111561130c5782518255916020019190600101906112f1565b5b50905061131a919061131e565b5090565b61134091905b8082111561133c576000816000905550600101611324565b5090565b9056fea165627a7a723058207370782d636bbaa674fc18b40c4bf0cecf0bf643898b2b7ae33c6b8dcc6cc9070029",
  "source": "pragma solidity >=0.4.21 < 0.6.0;\n\ncontract Market {\n\n    event NewListing(uint listingId, string name, string category, string description, string image_id, uint price_in_wei);\n\n    struct Listing {\n        string name;\n        string description;\n        string image_id;\n        string category;\n        uint price_in_wei;\n        bool available;\n    }\n\n    Listing[] public listings;\n\n    mapping (uint => address) public listingToOwner;\n    mapping (address => uint) ownerListingCount;\n\n    function getListingCount() public view returns(uint) {\n        return listings.length;\n    }\n\n    function createListing(\n        string memory _name,\n        string memory _description,\n        string memory _image_id,\n        string memory _category,\n        uint _price_in_wei\n    ) public {\n        uint id = listings.push(Listing(_name, _description, _category, _image_id, _price_in_wei, true));\n        listingToOwner[id] = msg.sender;\n        ownerListingCount[msg.sender]++;\n        emit NewListing(id, _name, _description, _category, _image_id, _price_in_wei);\n    }\n\n    function getListingName(uint _id) external view returns(string memory) {\n        return(listings[_id].name);\n    }\n\n    function getListingDescription(uint _id) external view returns(string memory) {\n        return(listings[_id].description);\n    }\n\n    function getListingImageId(uint _id) external view returns(string memory) {\n        return(listings[_id].image_id);\n    }\n\n    function getListingPrice(uint _id) external view returns(uint) {\n        return(listings[_id].price_in_wei);\n    }\n\n    function getListingAvailability(uint _id) external view returns(bool) {\n        return(listings[_id].available);\n    }\n\n    function getListingOwnerById(uint _id) external view returns(address) {\n        return(listingToOwner[_id]);\n    }\n}",
  "sourcePath": "/Users/tarcode/Desktop/ETH/eth-hack/contracts/Market.sol",
  "compiler": {
    "name": "solc",
    "version": "0.5.0+commit.1d4f565a.Emscripten.clang"
  },
  "schemaVersion": "3.0.6",
  "updatedAt": "2019-04-20T08:59:41.037Z",
  "devdoc": {
    "methods": {}
  },
  "userdoc": {
    "methods": {}
  }
}