{
  "contractName": "Market",
  "abi": [
    {
      "constant": true,
      "inputs": [
        {
          "name": "",
          "type": "uint256"
        }
      ],
      "name": "listingToOwner",
      "outputs": [
        {
          "name": "",
          "type": "address"
        }
      ],
      "payable": false,
      "stateMutability": "view",
      "type": "function",
      "signature": "0x00eea685"
    },
    {
      "constant": true,
      "inputs": [
        {
          "name": "",
          "type": "uint256"
        }
      ],
      "name": "listings",
      "outputs": [
        {
          "name": "name",
          "type": "string"
        },
        {
          "name": "description",
          "type": "string"
        },
        {
          "name": "image_id",
          "type": "string"
        },
        {
          "name": "category",
          "type": "string"
        },
        {
          "name": "price_in_wei",
          "type": "uint256"
        },
        {
          "name": "available",
          "type": "bool"
        }
      ],
      "payable": false,
      "stateMutability": "view",
      "type": "function",
      "signature": "0xde74e57b"
    },
    {
      "anonymous": false,
      "inputs": [
        {
          "indexed": false,
          "name": "listingId",
          "type": "uint256"
        },
        {
          "indexed": false,
          "name": "name",
          "type": "string"
        },
        {
          "indexed": false,
          "name": "category",
          "type": "string"
        },
        {
          "indexed": false,
          "name": "description",
          "type": "string"
        },
        {
          "indexed": false,
          "name": "image_id",
          "type": "string"
        },
        {
          "indexed": false,
          "name": "price_in_wei",
          "type": "uint256"
        }
      ],
      "name": "NewListing",
      "type": "event",
      "signature": "0x82406d862d0fb4ffb4e71be8540de79419e5ed7fda48e14da2caa73d468193bf"
    },
    {
      "anonymous": false,
      "inputs": [
        {
          "indexed": false,
          "name": "listingId",
          "type": "uint256"
        },
        {
          "indexed": false,
          "name": "price_in_wei",
          "type": "uint256"
        },
        {
          "indexed": false,
          "name": "available",
          "type": "bool"
        }
      ],
      "name": "BoughtListing",
      "type": "event",
      "signature": "0xb98f2d6637ff25d7a84f4dd0d7bb7559c7800690d4f533ce8a16825926219cd1"
    },
    {
      "constant": true,
      "inputs": [],
      "name": "getListingCount",
      "outputs": [
        {
          "name": "",
          "type": "uint256"
        }
      ],
      "payable": false,
      "stateMutability": "view",
      "type": "function",
      "signature": "0x87ed92d7"
    },
    {
      "constant": false,
      "inputs": [
        {
          "name": "_name",
          "type": "string"
        },
        {
          "name": "_description",
          "type": "string"
        },
        {
          "name": "_image_id",
          "type": "string"
        },
        {
          "name": "_category",
          "type": "string"
        },
        {
          "name": "_price_in_wei",
          "type": "uint256"
        }
      ],
      "name": "createListing",
      "outputs": [],
      "payable": false,
      "stateMutability": "nonpayable",
      "type": "function",
      "signature": "0x1bafa6ed"
    },
    {
      "constant": true,
      "inputs": [
        {
          "name": "_id",
          "type": "uint256"
        }
      ],
      "name": "getListingName",
      "outputs": [
        {
          "name": "",
          "type": "string"
        }
      ],
      "payable": false,
      "stateMutability": "view",
      "type": "function",
      "signature": "0x88069f7b"
    },
    {
      "constant": true,
      "inputs": [
        {
          "name": "_id",
          "type": "uint256"
        }
      ],
      "name": "getListingDescription",
      "outputs": [
        {
          "name": "",
          "type": "string"
        }
      ],
      "payable": false,
      "stateMutability": "view",
      "type": "function",
      "signature": "0x288e6403"
    },
    {
      "constant": true,
      "inputs": [
        {
          "name": "_id",
          "type": "uint256"
        }
      ],
      "name": "getListingImageId",
      "outputs": [
        {
          "name": "",
          "type": "string"
        }
      ],
      "payable": false,
      "stateMutability": "view",
      "type": "function",
      "signature": "0x78ab9be7"
    },
    {
      "constant": true,
      "inputs": [
        {
          "name": "_id",
          "type": "uint256"
        }
      ],
      "name": "getListingPrice",
      "outputs": [
        {
          "name": "",
          "type": "uint256"
        }
      ],
      "payable": false,
      "stateMutability": "view",
      "type": "function",
      "signature": "0xd6077fbf"
    },
    {
      "constant": true,
      "inputs": [
        {
          "name": "_id",
          "type": "uint256"
        }
      ],
      "name": "getListingAvailability",
      "outputs": [
        {
          "name": "",
          "type": "bool"
        }
      ],
      "payable": false,
      "stateMutability": "view",
      "type": "function",
      "signature": "0xc51b478a"
    },
    {
      "constant": true,
      "inputs": [
        {
          "name": "_id",
          "type": "uint256"
        }
      ],
      "name": "getListingOwnerById",
      "outputs": [
        {
          "name": "",
          "type": "address"
        }
      ],
      "payable": false,
      "stateMutability": "view",
      "type": "function",
      "signature": "0xece5a873"
    },
    {
      "constant": false,
      "inputs": [
        {
          "name": "_to",
          "type": "address"
        },
        {
          "name": "_id",
          "type": "uint256"
        }
      ],
      "name": "buyListing",
      "outputs": [],
      "payable": true,
      "stateMutability": "payable",
      "type": "function",
      "signature": "0x0c97fa64"
    }
  ],
  "bytecode": "0x608060405234801561001057600080fd5b506114c5806100206000396000f3fe6080604052600436106100ae576000357c0100000000000000000000000000000000000000000000000000000000900463ffffffff168062eea685146100b35780630c97fa641461012e5780631bafa6ed1461017c578063288e64031461041357806378ab9be7146104c757806387ed92d71461057b57806388069f7b146105a6578063c51b478a1461065a578063d6077fbf146106ad578063de74e57b146106fc578063ece5a87314610906575b600080fd5b3480156100bf57600080fd5b506100ec600480360360208110156100d657600080fd5b8101908080359060200190929190505050610981565b604051808273ffffffffffffffffffffffffffffffffffffffff1673ffffffffffffffffffffffffffffffffffffffff16815260200191505060405180910390f35b61017a6004803603604081101561014457600080fd5b81019080803573ffffffffffffffffffffffffffffffffffffffff169060200190929190803590602001909291905050506109b4565b005b34801561018857600080fd5b50610411600480360360a081101561019f57600080fd5b81019080803590602001906401000000008111156101bc57600080fd5b8201836020820111156101ce57600080fd5b803590602001918460018302840111640100000000831117156101f057600080fd5b91908080601f016020809104026020016040519081016040528093929190818152602001838380828437600081840152601f19601f8201169050808301925050505050505091929192908035906020019064010000000081111561025357600080fd5b82018360208201111561026557600080fd5b8035906020019184600183028401116401000000008311171561028757600080fd5b91908080601f016020809104026020016040519081016040528093929190818152602001838380828437600081840152601f19601f820116905080830192505050505050509192919290803590602001906401000000008111156102ea57600080fd5b8201836020820111156102fc57600080fd5b8035906020019184600183028401116401000000008311171561031e57600080fd5b91908080601f016020809104026020016040519081016040528093929190818152602001838380828437600081840152601f19601f8201169050808301925050505050505091929192908035906020019064010000000081111561038157600080fd5b82018360208201111561039357600080fd5b803590602001918460018302840111640100000000831117156103b557600080fd5b91908080601f016020809104026020016040519081016040528093929190818152602001838380828437600081840152601f19601f82011690508083019250505050505050919291929080359060200190929190505050610ab1565b005b34801561041f57600080fd5b5061044c6004803603602081101561043657600080fd5b8101908080359060200190929190505050610e4e565b6040518080602001828103825283818151815260200191508051906020019080838360005b8381101561048c578082015181840152602081019050610471565b50505050905090810190601f1680156104b95780820380516001836020036101000a031916815260200191505b509250505060405180910390f35b3480156104d357600080fd5b50610500600480360360208110156104ea57600080fd5b8101908080359060200190929190505050610f10565b6040518080602001828103825283818151815260200191508051906020019080838360005b83811015610540578082015181840152602081019050610525565b50505050905090810190601f16801561056d5780820380516001836020036101000a031916815260200191505b509250505060405180910390f35b34801561058757600080fd5b50610590610fd2565b6040518082815260200191505060405180910390f35b3480156105b257600080fd5b506105df600480360360208110156105c957600080fd5b8101908080359060200190929190505050610fde565b6040518080602001828103825283818151815260200191508051906020019080838360005b8381101561061f578082015181840152602081019050610604565b50505050905090810190601f16801561064c5780820380516001836020036101000a031916815260200191505b509250505060405180910390f35b34801561066657600080fd5b506106936004803603602081101561067d57600080fd5b81019080803590602001909291905050506110a0565b604051808215151515815260200191505060405180910390f35b3480156106b957600080fd5b506106e6600480360360208110156106d057600080fd5b81019080803590602001909291905050506110d6565b6040518082815260200191505060405180910390f35b34801561070857600080fd5b506107356004803603602081101561071f57600080fd5b81019080803590602001909291905050506110ff565b60405180806020018060200180602001806020018781526020018615151515815260200185810385528b818151815260200191508051906020019080838360005b83811015610791578082015181840152602081019050610776565b50505050905090810190601f1680156107be5780820380516001836020036101000a031916815260200191505b5085810384528a818151815260200191508051906020019080838360005b838110156107f75780820151818401526020810190506107dc565b50505050905090810190601f1680156108245780820380516001836020036101000a031916815260200191505b50858103835289818151815260200191508051906020019080838360005b8381101561085d578082015181840152602081019050610842565b50505050905090810190601f16801561088a5780820380516001836020036101000a031916815260200191505b50858103825288818151815260200191508051906020019080838360005b838110156108c35780820151818401526020810190506108a8565b50505050905090810190601f1680156108f05780820380516001836020036101000a031916815260200191505b509a505050505050505050505060405180910390f35b34801561091257600080fd5b5061093f6004803603602081101561092957600080fd5b81019080803590602001909291905050506113b7565b604051808273ffffffffffffffffffffffffffffffffffffffff1673ffffffffffffffffffffffffffffffffffffffff16815260200191505060405180910390f35b60016020528060005260406000206000915054906101000a900473ffffffffffffffffffffffffffffffffffffffff1681565b6000818154811015156109c357fe5b906000526020600020906006020160040154341415156109e257600080fd5b600080828154811015156109f257fe5b906000526020600020906006020160050160006101000a81548160ff0219169083151502179055507fb98f2d6637ff25d7a84f4dd0d7bb7559c7800690d4f533ce8a16825926219cd1813460006040518084815260200183815260200182151515158152602001935050505060405180910390a18173ffffffffffffffffffffffffffffffffffffffff166108fc349081150290604051600060405180830381858888f19350505050158015610aac573d6000803e3d6000fd5b505050565b60008060c06040519081016040528088815260200187815260200185815260200186815260200184815260200160011515815250908060018154018082558091505090600182039060005260206000209060060201600090919290919091506000820151816000019080519060200190610b2c9291906113f4565b506020820151816001019080519060200190610b499291906113f4565b506040820151816002019080519060200190610b669291906113f4565b506060820151816003019080519060200190610b839291906113f4565b506080820151816004015560a08201518160050160006101000a81548160ff02191690831515021790555050509050336001600083815260200190815260200160002060006101000a81548173ffffffffffffffffffffffffffffffffffffffff021916908373ffffffffffffffffffffffffffffffffffffffff160217905550600260003373ffffffffffffffffffffffffffffffffffffffff1673ffffffffffffffffffffffffffffffffffffffff168152602001908152602001600020600081548092919060010191905055507f82406d862d0fb4ffb4e71be8540de79419e5ed7fda48e14da2caa73d468193bf818787868887604051808781526020018060200180602001806020018060200186815260200185810385528a818151815260200191508051906020019080838360005b83811015610cd2578082015181840152602081019050610cb7565b50505050905090810190601f168015610cff5780820380516001836020036101000a031916815260200191505b50858103845289818151815260200191508051906020019080838360005b83811015610d38578082015181840152602081019050610d1d565b50505050905090810190601f168015610d655780820380516001836020036101000a031916815260200191505b50858103835288818151815260200191508051906020019080838360005b83811015610d9e578082015181840152602081019050610d83565b50505050905090810190601f168015610dcb5780820380516001836020036101000a031916815260200191505b50858103825287818151815260200191508051906020019080838360005b83811015610e04578082015181840152602081019050610de9565b50505050905090810190601f168015610e315780820380516001836020036101000a031916815260200191505b509a505050505050505050505060405180910390a1505050505050565b6060600082815481101515610e5f57fe5b90600052602060002090600602016001018054600181600116156101000203166002900480601f016020809104026020016040519081016040528092919081815260200182805460018160011615610100020316600290048015610f045780601f10610ed957610100808354040283529160200191610f04565b820191906000526020600020905b815481529060010190602001808311610ee757829003601f168201915b50505050509050919050565b6060600082815481101515610f2157fe5b90600052602060002090600602016002018054600181600116156101000203166002900480601f016020809104026020016040519081016040528092919081815260200182805460018160011615610100020316600290048015610fc65780601f10610f9b57610100808354040283529160200191610fc6565b820191906000526020600020905b815481529060010190602001808311610fa957829003601f168201915b50505050509050919050565b60008080549050905090565b6060600082815481101515610fef57fe5b90600052602060002090600602016000018054600181600116156101000203166002900480601f0160208091040260200160405190810160405280929190818152602001828054600181600116156101000203166002900480156110945780601f1061106957610100808354040283529160200191611094565b820191906000526020600020905b81548152906001019060200180831161107757829003601f168201915b50505050509050919050565b600080828154811015156110b057fe5b906000526020600020906006020160050160009054906101000a900460ff169050919050565b600080828154811015156110e657fe5b9060005260206000209060060201600401549050919050565b60008181548110151561110e57fe5b9060005260206000209060060201600091509050806000018054600181600116156101000203166002900480601f0160208091040260200160405190810160405280929190818152602001828054600181600116156101000203166002900480156111ba5780601f1061118f576101008083540402835291602001916111ba565b820191906000526020600020905b81548152906001019060200180831161119d57829003601f168201915b505050505090806001018054600181600116156101000203166002900480601f0160208091040260200160405190810160405280929190818152602001828054600181600116156101000203166002900480156112585780601f1061122d57610100808354040283529160200191611258565b820191906000526020600020905b81548152906001019060200180831161123b57829003601f168201915b505050505090806002018054600181600116156101000203166002900480601f0160208091040260200160405190810160405280929190818152602001828054600181600116156101000203166002900480156112f65780601f106112cb576101008083540402835291602001916112f6565b820191906000526020600020905b8154815290600101906020018083116112d957829003601f168201915b505050505090806003018054600181600116156101000203166002900480601f0160208091040260200160405190810160405280929190818152602001828054600181600116156101000203166002900480156113945780601f1061136957610100808354040283529160200191611394565b820191906000526020600020905b81548152906001019060200180831161137757829003601f168201915b5050505050908060040154908060050160009054906101000a900460ff16905086565b60006001600083815260200190815260200160002060009054906101000a900473ffffffffffffffffffffffffffffffffffffffff169050919050565b828054600181600116156101000203166002900490600052602060002090601f016020900481019282601f1061143557805160ff1916838001178555611463565b82800160010185558215611463579182015b82811115611462578251825591602001919060010190611447565b5b5090506114709190611474565b5090565b61149691905b8082111561149257600081600090555060010161147a565b5090565b9056fea165627a7a723058202f6abebdac9dec2e062271635a034da97a9cfc1a4aa04b8d58eb3f09ad458d4d0029",
  "source": "pragma solidity >=0.4.21 < 0.6.0;\n\ncontract Market {\n\n    event NewListing(uint listingId, string name, string category, string description, string image_id, uint price_in_wei);\n    event BoughtListing(uint listingId, uint price_in_wei, bool available);\n\n    struct Listing {\n        string name;\n        string description;\n        string image_id;\n        string category;\n        uint price_in_wei;\n        bool available;\n    }\n\n    Listing[] public listings;\n\n    mapping (uint => address) public listingToOwner;\n    mapping (address => uint) ownerListingCount;\n\n    function getListingCount() public view returns(uint) {\n        return listings.length;\n    }\n\n    function createListing(\n        string memory _name,\n        string memory _description,\n        string memory _image_id,\n        string memory _category,\n        uint  _price_in_wei\n    ) public {\n        uint id = listings.push(Listing(_name, _description, _category, _image_id, _price_in_wei, true));\n        listingToOwner[id] = msg.sender;\n        ownerListingCount[msg.sender]++;\n        emit NewListing(id, _name, _description, _category, _image_id, _price_in_wei);\n    }\n\n    function getListingName(uint _id) external view returns(string memory) {\n        return(listings[_id].name);\n    }\n\n    function getListingDescription(uint _id) external view returns(string memory) {\n        return(listings[_id].description);\n    }\n\n    function getListingImageId(uint _id) external view returns(string memory) {\n        return(listings[_id].image_id);\n    }\n\n    function getListingPrice(uint _id) external view returns(uint) {\n        return(listings[_id].price_in_wei);\n    }\n\n    function getListingAvailability(uint _id) external view returns(bool) {\n        return(listings[_id].available);\n    }\n\n    function getListingOwnerById(uint _id) external view returns(address) {\n        return(listingToOwner[_id]);\n    }\n\n    function buyListing(address payable _to, uint _id) public payable {\n        // Does this transfer the right amount of ether (msg.value measured in wei)?\n        require(msg.value == listings[_id].price_in_wei);\n        listings[_id].available = false;\n        emit BoughtListing(_id, msg.value, false);\n\n        _to.transfer(msg.value);\n\n    }\n}",
  "sourcePath": "/Users/tarcode/Desktop/altimarket/eth-hack/contracts/Market.sol",
  "compiler": {
    "name": "solc",
    "version": "0.5.0+commit.1d4f565a.Emscripten.clang"
  },
  "schemaVersion": "3.0.6",
  "updatedAt": "2019-04-26T18:41:58.559Z",
  "devdoc": {
    "methods": {}
  },
  "userdoc": {
    "methods": {}
  }
}